:020000040000FA
:020000000828CE
:080008000B18F6280B1943291F
:1000100085018F0102308F0083168501F030860044
:1000200087308100831285018601A8230230962340
:100030000230962308309623003096230C30962306
:10004000D723C323ED22ED22ED22FC2210234223ED
:100050000623ED22382329231A23F2220623F7222E
:10006000A823C323ED22ED22ED22ED22512301230B
:1000700006230B23102315231A231F238823ED2285
:100080002923332338231F2310233D231A23062338
:10009000ED22ED22ED22FC221023422306238101D2
:1000A00026308E008B158B175428C323C8230630A7
:1000B0008F001414951496149714981419159A1403
:1000C0009B149C149D149E151F14A014211422141B
:1000D000A314A414A5142614271486110611E523CD
:1000E000ED22ED22ED223823ED2260238823EA233E
:1000F000ED22ED22ED226A23652383230830962327
:10010000053096231930A800AA000900C323C8238C
:1001100004308F001415951496149714981499149C
:100120009A149B149C149D149E149F14A014A11443
:10013000A214A314A414A514A614A71506118611BD
:10014000E523ED22ED22ED223823ED2260238823E2
:10015000EA23ED22ED22ED226A2365238323083072
:1001600096230130962300309100930015309200C1
:1001700084001430A800AA000900C323C823053056
:100180008F009414951496149714981499149A1433
:100190009B149C149D149E149F14A014A114A214CB
:1001A000A314A414A514A614A71406118611E523FC
:1001B000ED22ED222923332338238823EA23ED225D
:1001C000F7220623FC22ED228323083096230030F9
:1001D00096230030910093000030B200143092005A
:1001E00084008B1632308E0081010900BD23061E6B
:1001F0000029861E0329061F1429861F2629352952
:100200000F1D4E297F290F1D08298F1CC3290F2A76
:100210000B100F1C0D290F1811298F1CBD288F18CA
:1002200055288F1C862835290F1D35290F1C352987
:10023000801C0A2A131A0A2A3823FC218611131655
:10024000001580100408A800AA0037290F1D3529C1
:100250000F1C3529801C0A2A931A0A2A0623FC211E
:10026000061193168015801037290B100900131CF6
:100270003529131D3529131E3529931E35292A08C2
:10028000A800D9220F2AA8238E0B4D2932308E00C8
:1002900081019119111C8B29AA2909000F1C5229CF
:1002A0000F1856298F1C59298F1865298F1C722900
:1002B00035290C3096230B309623ED2208309623F7
:1002C0000430962351238F143529083096230430A7
:1002D0009623ED220C3096230030962351230F14E1
:1002E0008F1035290C30962300309623ED220C30E8
:1002F00096230B30962351230F108F1035290F189A
:1003000035298F1C84293529911D8B292A08A8009D
:10031000111A0F2A9F290018562380185B230019F1
:10032000382380190623111E9921111A9C21910A44
:100330003529920A840A08009203840308000C30CD
:10034000962308309623D223103091002630920055
:1003500084003529111AB829AD290C3096230930AB
:100360009623D22310309100273092008400352943
:100370000830962300309623D723003091001430A4
:100380009200840035290F1CC629D9290B22930A13
:100390001319131CCE292A08A8000F2A911DD3294E
:1003A000111A0F2A9F29111E9921111A9C21910AB5
:1003B0003529801C0A2A1319131CDF290A2A0B224B
:1003C000930A0C3096230F309623B21DEA296A2334
:1003D000FC21082A321DEF296F23FC21082AB21CB8
:1003E000F4297423FC21082A321CF9297923FC21E1
:1003F000082A7E23FC21082A111E0830111A0C300D
:100400009623111E1430111A1E3004029623080080
:10041000B20D372935290014801056230800C32354
:10042000E5238823EA23083096230B3096234C23B8
:100430001F23F722093029020319222A0318222A2E
:10044000031C282A6F2313309623093029022D2AF2
:100450006A2313309623290A2D2A10389623D9228D
:10046000CD239C230130AB001D3028020319462AFE
:10047000273028020319462AD72301302807840091
:100480008019842A001A462A8018AC2A0230AB0050
:100490001430280203195A2A1E30280203195A2A36
:1004A000D2230130280284008019842A001A5A2A93
:1004B0008018AC2A0430AB00D72306151E30280262
:1004C0000319652A0318652A702A0A302802840055
:1004D0008019842A001A702A06158018AC2A702AFE
:1004E0000830AB00D7231D30280203197A2A031CD9
:1004F0007A2A982A0A30280784008019842A001A48
:10050000982A8018AC2A982A8D235123A223C3232A
:10051000DC238F0102308F00A90132288D2347236D
:10052000BA23C323DC238F0102308F00A9013228B4
:1005300028082A0203198E2AA90A28088400001410
:100540008010143084000012840A27300402031D36
:10055000A32A2A08A8000F2ABB222B18C222AB18F4
:10056000C5222B19C822AB19CC2251239C23280861
:10057000840000162F2A28088400001ED022001AAA
:10058000512308000130A80708000130A802080024
:100590000A30A802D92208000A30A807D922080088
:1005A0000018562380185B2300193823801906236E
:1005B000080028081E3C0319E72A031CE72A031D2C
:1005C000E12A0830962314302802962308000C30C4
:1005D00096231E30280296230800123096231030EE
:1005E0009623080015309623163096230800153000
:1005F0009623123096230800143096231D3096233C
:1006000008001430962314309623080014309623E3
:1006100015309623080014309623163096230800D0
:100620001430962311309623080015309623153088
:1006300096230800143096231C30962308001530AA
:1006400096231430962308001430962318309623EE
:100650000800143096231F30962308001530962387
:100660001030962308001430962312309623080089
:100670001530962313309623080014309623133038
:1006800096230800153096231A309623080015305B
:100690009623183096230800143096231930962399
:1006A0000800123096231A30962308001F30962334
:1006B0001F3096230800153096231F30962308001C
:1006C00014309623103096230800123096231C30E5
:1006D0009623080013309623103096230800133019
:1006E0009623113096230800133096231230962358
:1006F00008001330962313309623080013309623F6
:1007000014309623080013309623153096230800E2
:100710000C3096230030962308000C3096230B30C3
:1007200096232E2310231F232423080085008614DC
:1007300000008610B12308000230BB00A823BB0BC9
:100740009E2B08003230BB00A823BB0B9E2B080059
:1007500000308C0033308D008C0FAC2B8D0BAC2B0C
:10076000080000308C0005308D008C0FB52B8D0BF0
:10077000B52B08000614A2230610F93090000000E3
:10078000900BBF2B08000030962301309623080001
:10079000003096230F3096230800003096230C304B
:1007A000962308000030962304309623080000307A
:1007B0009623063096230800143084008001840FAD
:1007C00028300402031DDE2B0800143084000A3098
:1007D0009100EE2B1E3084000A3091000018562341
:1007E00080185B230019382380190623840A910B93
:0407F000EE2B0800E4
:00000001FF
