:020000040000FA
:020000000828CE
:080008000B18F0280B19372931
:1000100085018F0102308F0083168501F030860044
:1000200087308100831285018601922202308C2262
:1000300002308C2208308C2200308C220C308C2232
:10004000B922AA220022002200220F2223224B22C0
:1000500019220022412237222D22052219220A22AA
:100060009222AA22002200220022002250221422E0
:1000700019221E22232228222D2232228722002208
:1000800037223C2241223222232246222D221922CB
:100090000022002200220F2223224B22192281015A
:1000A00026308E008B158B175428AA22AF220630DB
:1000B0008F001414951496149714981419159A1403
:1000C0009B149C149D149E151F14A014211422141B
:1000D000A314A414A5142614271486150611BE22F1
:1000E000002200220022412200225F228722C32216
:1000F00000220022002269226422822208308C22FF
:1001000005308C220900AA22AF2204308F0014157A
:10011000951496149714981499149A149B149C147B
:100120009D149E149F14A014A114A214A314A4142B
:10013000A514A614A71506158611BE2200220022BA
:100140000022412200225F228722C32200220022B5
:10015000002269226422822208308C2201308C2203
:100160000030910093001530920084000900AA220B
:10017000AF2205308F009414951496149714981498
:1001800099149A149B149C149D149E149F14A014EB
:10019000A114A214A314A414A514A614A71406153C
:1001A0008615BE220022002237223C2241228722CD
:1001B000C32200220A2219220F22002282220830A2
:1001C0008C2200308C220030910093000030B2006D
:1001D0001430920084008B1632308E0081010900A9
:1001E000A422061EFA28861EFD28061F0E29861F39
:1001F0001D292C290F1D422973290F1D02298F1C2F
:10020000B329FD290B100F1C07290F180B298F1C70
:10021000B7288F1855288F1C83282C290F1D2C29AF
:100220000F1C2C29801CF829131AF8294122EA21D5
:1002300086111316001580102E290F1D2C290F1C56
:100240002C29801CF829931AF8291922EA21061171
:100250009316801580102E290B100900131C2C29D1
:10026000131D2C29131E2C29931E2C29FD299222A3
:100270008E0B412932308E0081019119111C7B298E
:100280009A2909000F1C46290F184A298F1C4D294D
:100290008F1859298F1C66292C290C308C220B3081
:1002A0008C22002208308C2204308C2250228F14A1
:1002B0002C2908308C2204308C2200220C308C2215
:1002C00000308C2250220F148F102C290C308C22DD
:1002D00000308C2200220C308C220B308C225022D9
:1002E0000F108F102C290F1C76292C29911D7B298A
:1002F000111AFD298F290018552280185A22001939
:10030000412280191922111E8921111A8C21910A6A
:100310002C29920A840A08009203840308000C30F6
:100320008C2208308C22B4221030910026309200AA
:1003300084002C29111AA8299D290C308C220930FF
:100340008C22B422103091002730920084002C2996
:1003500008308C2200308C22B922003091001430F9
:10036000920084002C290F1CB629C729F921930A71
:100370001319131CBC29FD29911DC129111AFD292E
:100380008F29111E8921111A8C21910A2C29801C78
:10039000F8291319131CCD29F829F921930A0C30D7
:1003A0008C220F308C22B21DD8296922EA21F6292D
:1003B000321DDD296E22EA21F629B21CE2297322C0
:1003C000EA21F629321CE7297822EA21F6297D2242
:1003D000EA21F629111E0830111A0C308C22111E48
:1003E0001430111A1E3004028C220800B20D2E297E
:1003F0002C290014801055220800AA220B10222854
:1004000012308C2210308C22080015308C221630CD
:100410008C22080015308C2212308C2208001430F7
:100420008C221D308C22080014308C2214308C2237
:10043000080014308C2215308C22080014308C22D5
:1004400016308C22080014308C2211308C220800C7
:1004500015308C2215308C22080014308C221C3070
:100460008C22080015308C2214308C2208001430A5
:100470008C221F308C22080014308C2212308C22E7
:10048000080015308C2213308C22080014308C2286
:1004900013308C22080015308C221A308C22080070
:1004A00012308C221A308C2208001F308C221F3010
:1004B0008C22080015308C221F308C22080014304A
:1004C0008C2210308C22080012308C221C308C229E
:1004D000080013308C2210308C22080013308C223C
:1004E00011308C22080013308C2212308C2208002C
:1004F00013308C2213308C22080013308C221430DD
:100500008C22080013308C2215308C2208000C300D
:100510008C2200308C220800850086140000861092
:100520009B22080000308C0033308D008C0F962AFF
:100530008D0B962A080000308C0005308D008C0F42
:100540009F2A8D0B9F2A0800F93090000000900B25
:10055000A62A080000308C2201308C2208000030CE
:100560008C220F308C22080000308C2204308C2228
:10057000080000308C2206308C22080014308400E1
:100580000A309100C72A1E3084000A3091000018FA
:10059000552280185A220019412280191922840AF2
:0605A000910BC72A0800C0
:00000001FF
