:020000040000FA
:020000000828CE
:080008000B18D4280B19212963
:1000100085018F0102308F0083168501F030860044
:1000200087308100831285018601A12302308F234E
:1000300002308F2308308F2300308F230C308F2322
:10004000D923C523D322D322D322E222F622282386
:10005000EC22D3221E230F230023D822EC22DD2200
:100060009B23C523D322D322D322D3223723E722B3
:10007000EC22F122F622FB22002305236E23D32259
:100080000F2319231E230523F62223230023EC220A
:10009000D322D322D322E222F6222823EC2281018A
:1000A00026308E008B158B175428C523CA230630A3
:1000B0008F001414951496149714981419159A1403
:1000C0009B149C149D149E151F14A014211422141B
:1000D000A314A414A5142614271486150611E723C7
:1000E000D322D322D3221E23D32246236E23EC23F2
:1000F000D322D322D32250234B23692308308F23CA
:1001000005308F231930A800AA000900C523CA238F
:1001100004308F0014157C23A71506158611E723DC
:10012000D322D322D3221E23D32246236E23EC23B1
:10013000D322D322D32250234B23692308308F2389
:1001400001308F230030910093001530920084001D
:100150001430A800AA000900C523CA2305308F0067
:1001600094147C23A71406158615E723D322D322E3
:100170000F2319231E236E23EC23D322DD22EC222E
:10018000E222D322692308308F2300308F230030EE
:10019000910093000030B2001430920084008B165E
:1001A00032308E0081010900BF23061EDE28861E24
:1001B000E128061FF228861F042913290F1D2C2968
:1001C0005D290F1DE6288F1CA129EF290B100F1C9C
:1001D000EB280F18EF288F1CAC288F1855288F1C80
:1001E000862813290F1D13290F1C1329801CE929A8
:1001F000131AE9291E23DB2186111316001580101E
:100200000408A800AA0015290F1D13290F1C132983
:10021000801CE929931AE929EC22DB2106119316A7
:100220008015801015290B100900131C1329131DAC
:100230001329131E1329931E13292A08A800BF226D
:10024000EF29A1238E0B2B2932308E0081019119C9
:10025000111C6929882909000F1C30290F1834291D
:100260008F1C37298F1843298F1C502913290C30D4
:100270008F230B308F23D32208308F2304308F231A
:1002800037238F14132908308F2304308F23D32270
:100290000C308F2300308F2337230F148F10132936
:1002A0000C308F2300308F23D3220C308F230B3060
:1002B0008F2337230F108F1013290F1813298F1C2A
:1002C00062291329911D69292A08A800111AEF290A
:1002D0007D2900183C238018412300191E23801912
:1002E000EC22111E7721111A7A21910A1329920A00
:1002F000840A08009203840308000C308F2308301E
:100300008F23D423103091002630920084001329CB
:10031000111A96298B290C308F2309308F23D4236F
:1003200010309100273092008400132908308F2369
:1003300000308F23D92300309100143092008400C4
:1003400013290F1CA429B829EB21B723930A1319E9
:10035000131CAD292A08A800EF29911DB229111AF2
:10036000EF297D29111E7721111A7A21910A13296B
:10037000801CE9291319131CBE29E929EB21930AD2
:100380000C308F230F308F23B21DC9295023DB215E
:10039000E729321DCE295523DB21E729B21CD329B9
:1003A0005A23DB21E729321CD8295F23DB21E729E7
:1003B0006423DB21E729111E0830111A0C308F232A
:1003C000111E1430111A1E3004028F230800B20DC2
:1003D0001529B7231329001480103C230800C523D6
:1003E00006118611E7236E23EC2308308F230B3090
:1003F0008F2332230523DD22093029020319042A21
:100400000318042A031C0A2A552313308F230930AA
:1004100029020F2A502313308F23290A0F2A10385C
:100420008F23BF22CF2395230130AB001D3028023C
:100430000319282A273028020319282AD923013032
:10044000280784008019642A001A282A8018922A12
:100450000230AB001430280203193C2A1E30280257
:1004600003193C2AD4230130280284008019642A0D
:10047000001A3C2A8018922A0430AB00D9231E307F
:1004800028020319462A0318462A502A0A3028024D
:1004900084008019642A001A502A8018922A502A4F
:1004A0000830AB00D9231D30280203195A2A031C37
:1004B0005A2A7E2A0A30280784008019642A001AE2
:1004C0007E2A8018922A7E2AD92373233723061581
:1004D0009B230611C523DE238F0102308F00A90163
:1004E0003228D92373232D238615B3238611C523E0
:1004F000DE238F0102308F00A901322828082A024A
:100500000319712AA90A28088400001480101430E5
:1005100084000012840A27300402031D892A2A0855
:10052000A800EF29A1222B18A822AB18AB222B1967
:10053000AE22AB19B2223723952328088400001677
:10054000112A28088400001EB622001A372308004A
:100550000130A80708000130A80208000A30A802EC
:10056000BF2208000A30A807BF22080000183C2359
:100570008018412300191E238019EC220800280846
:100580001E3C0319CD2A031CCD2A031DC72A08309F
:100590008F23143028028F2308000C308F231E3045
:1005A00028028F23080012308F2310308F23080079
:1005B00015308F2316308F23080015308F2312300B
:1005C0008F23080014308F231D308F230800143030
:1005D0008F2314308F23080014308F2315308F237E
:1005E000080014308F2316308F23080014308F2317
:1005F00011308F23080015308F2315308F2308000A
:1006000014308F231C308F23080015308F231430B3
:100610008F23080014308F2318308F2308001430E4
:100620008F231F308F23080015308F2310308F2326
:10063000080014308F2312308F23080015308F23C9
:1006400013308F23080014308F2313308F230800BA
:1006500015308F231A308F23080015308F23183060
:100660008F23080014308F2319308F230800123095
:100670008F231A308F2308001F308F231F308F23C2
:10068000080015308F231F308F23080014308F236C
:1006900010308F23080012308F231C308F23080066
:1006A00013308F2310308F23080013308F23113025
:1006B0008F23080013308F2312308F23080013304C
:1006C0008F2313308F23080013308F2314308F2390
:1006D000080013308F2315308F2308000C308F2330
:1006E00000308F2308000C308F230B308F2314230E
:1006F000F62205230A2308009514961497149814DB
:1007000099149A149B149C149D149E149F14A01465
:10071000A114A214A314A414A514A61408008500FF
:10072000861400008610AA2308000230BB00A12313
:10073000BB0B972B08003230BB00A123BB0B972BC0
:10074000080000308C0033308D008C0FA52B8D0BF2
:10075000A52B080000308C0005308D008C0FAE2BCF
:100760008D0BAE2B080006149B2306100800061400
:100770000D30BB00A123BB0BBA2B06100800F930CB
:1007800090000000900BC12B080000308F23013037
:100790008F23080000308F230F308F230800003094
:1007A0008F230C308F23080000308F2304308F23D9
:1007B000080000308F2306308F2308001430840097
:1007C0008001840F28300402031DE02B0800143040
:1007D00084000A309100F02B1E3084000A30910012
:1007E00000183C238018412300191E238019EC2295
:0807F000840A910BF02B0800B4
:00000001FF
