:020000040000FA
:020000000828CE
:080008000B18F6280B1943291F
:1000100085018F0102308F0083168501F030860044
:10002000873081008312850186014A2302303E23F6
:1000300002303E2308303E2300303E230C303E2366
:1000400071236223B222B222B222C122D522FD2222
:10005000CB22B222F322E922DF22B722CB22BC221A
:100060004A236223B222B222B222B2220223C62241
:10007000CB22D022D522DA22DF22E4223923B22277
:10008000E922EE22F322E422D522F822DF22CB223B
:10009000B222B222B222C122D522FD22CB2281017C
:1000A00026308E008B158B17542862236723063069
:1000B0008F001414951496149714981419159A1403
:1000C0009B149C149D149E151F14A014211422141B
:1000D000A314A414A5142614271486150611762338
:1000E000B222B222B222F322B222112339237B237D
:1000F000B222B222B2221B231623342308303E231D
:1001000005303E231930A800AA00090062236723A6
:1001100004308F001415951496149714981499149C
:100120009A149B149C149D149E149F14A014A11443
:10013000A214A314A414A514A614A71506158611B9
:100140007623B222B222B222F322B2221123392321
:100150007B23B222B222B2221B231623342308307F
:100160003E2301303E230030910093001530920071
:1001700084001430A800AA00090062236723053018
:100180008F009414951496149714981499149A1433
:100190009B149C149D149E149F14A014A114A214CB
:1001A000A314A414A514A614A71406158615762363
:1001B000B222B222E922EE22F32239237B23B22299
:1001C000BC22CB22C122B222342308303E2300308D
:1001D0003E230030910093000030B20014309200B2
:1001E00084008B1632308E00810109005C23061ECC
:1001F0000029861E0329061F1429861F2629352952
:100200000F1D4E297F290F1D08298F1CBF29092A80
:100210000B100F1C0D290F1811298F1CBD288F18CA
:1002200055288F1C862835290F1D35290F1C352987
:10023000801C042A131A042AF322F62186111316AD
:10024000001580100408A800AA0037290F1D3529C1
:100250000F1C3529801C042A931A042ACB22F6216C
:10026000061193168015801037290B100900131CF6
:100270003529131D3529131E3529931E35292A08C2
:10028000A8009E22092A4A238E0B4D2932308E0067
:1002900081019119111C8729A62909000F1C5229D7
:1002A0000F1856298F1C59298F1865298F1C722900
:1002B00035290C303E230B303E23B22208303E233A
:1002C00004303E2302238F14352908303E230430A6
:1002D0003E23B2220C303E2300303E2302230F1473
:1002E0008F1035290C303E2300303E23B2220C30D3
:1002F0003E230B303E2302230F108F1035290F1C95
:1003000082293529911D8729111A092A9B2900184C
:10031000072380180C230019F3228019CB22111E09
:100320009521111A9821910A3529920A840A080008
:100330009203840308000C303E2308303E236C23D4
:10034000103091002630920084003529111AB4290A
:10035000A9290C303E2309303E236C231030910034
:10036000273092008400352908303E2300303E2398
:1003700071230030910014309200840035290F1C45
:10038000C229D3290522930A1319131CC829092A43
:10039000911DCD29111A092A9B29111E9521111A87
:1003A0009821910A3529801C042A1319131CD92974
:1003B000042A0522930A0C303E230F303E23B21D3F
:1003C000E4291B23F621022A321DE9292023F621E4
:1003D000022AB21CEE292523F621022A321CF32917
:1003E0002A23F621022A2F23F621022A111E083081
:1003F000111A0C303E23111E1430111A1E30040243
:100400003E230800B20D3729352900148010072338
:1004100008009E2244230130AB001D30280203193E
:100420001F2A2730280203191F2A712301302807A9
:10043000840080195A2A001A1F2A80186F2A023055
:10044000AB000030280203191F2A1E3028020319AE
:100450001F2A6C2301302802840080195A2A001AAE
:10046000332A80186F2A0430AB001E30280203198B
:100470003C2A03183C2A472A0A30280284008019A3
:100480005A2A001A472A061580186F2A472A083068
:10049000AB001D3028020319502A031C502A5C2A85
:1004A0000A302807840080195A2A001A5C2A80180A
:1004B0006F2A5C2A622B622B2808840000148010AB
:1004C0006223762339237B23143084000012840AAC
:1004D00027300402031D662A2A08A800092A802260
:1004E0002B188722AB188A222B198D22AB19912247
:1004F000022344232808840000168100A907092A42
:1005000028088400001E9522001A022308000130EA
:10051000A80708000130A80208000A30A8029E229D
:1005200008000A30A8079E22080000180723801838
:100530000C230019F3228019CB22080028081E3C46
:100540000319AC2A031CAC2A031DA62A08303E233B
:10055000143028023E2308000C303E231E302802AF
:100560003E23080012303E2310303E230800153091
:100570003E2316303E23080015303E2312303E2322
:10058000080014303E231D303E23080014303E2363
:1005900014303E23080014303E2315303E2308005B
:1005A00014303E2316303E23080014303E23113011
:1005B0003E23080015303E2315303E23080014303A
:1005C0003E231C303E23080015303E2314303E23CA
:1005D000080014303E231F303E23080014303E2311
:1005E00012303E23080015303E2313303E2308000E
:1005F00014303E2313303E23080015303E231A30BA
:100600003E23080012303E231A303E2308001F30DC
:100610003E231F303E23080015303E231F303E236B
:10062000080014303E2310303E23080012303E23D1
:100630001C303E23080013303E2310303E230800B8
:1006400013303E2311303E23080013303E23123076
:100650003E23080013303E2313303E23080013309E
:100660003E2314303E23080013303E2315303E2332
:1006700008000C303E2300303E230800850086141D
:1006800000008610532308000530BB004A23BB0B33
:10069000462B080000308C0033308D008C0F4E2B21
:1006A0008D0B4E2B080000308C0005308D008C0F18
:1006B000572B8D0B572B0800F93090000000900B42
:1006C0005E2B080000303E2301303E23080000303E
:1006D0003E230F303E23080000303E2304303E23EB
:1006E000080000303E2306303E230800143084000A
:1006F0000A3091007F2B1E3084000A3091000018D0
:10070000072380180C230019F3228019CB22840AB6
:06071000910B7F2B080095
:00000001FF
